S01200007364767873657269616C2E73726563CD
S11300009BC00000B4C00000B2C00000B0C000003B
S1130010AEC00000ACC00000AAC00000A8C0000030
S1130020A6C00000A4C0000000C50000C3C50000B5
S11300309EC000009CC000009AC0000098C0000050
S113004096C0000094C0000092C0000090C0000060
S11300508EC000008CC000008AC0000088C0000070
S113006086C0000084C0000082C0000080C0000080
S11300707EC000007CC000007AC0000078C0000090
S113008076C0000074C0000072C0000070C00000A0
S11300906EC000006CC000006AC0000068C00000B0
S11300A066C0000064C0000062C000001C034C0075
S11300B05500460041002000430044004300200056
S11300C0440065006D006F000000180344006500E3
S11300D061006E002000430061006D006500720045
S11300E0610000000403090409023E00020100C08B
S11300F03209040000010202010005240010010479
S11301002402060524060001070582030800FF09EE
S1130110040100020A00000007050402100005079C
S11301200583021000051201100102000008EB0310
S1130130442001000102DC0111241FBECFEFDAE0EC
S1130140DEBFCDBF11E0A0E0B1E0ECEBF0E102C016
S113015005900D92AA32B107D9F721E0AAE2B1E0E5
S113016001C01D92A534B207E1F722D7A5C748CF35
S1130170292F33272230310559F02330310569F016
S11301802130310521F582E190E026E231E028C0FA
S11301908EE390E028EE30E023C09927813091056A
S11301A051F018F0029769F017C0E4EEF0E0849182
S11301B090E09F0115C0EAECF0E0849190E09F018B
S11301C00FC0ECEAF0E0849190E09F0109C080E068
S11301D090E020E030E004C080E090E020E030E0F7
S11301E0FA01318320830895CF93DF93EC01FC015E
S11301F070968BE0DF011D928A95E9F782E08C838B
S1130200898783E08E8761E0CE010196FCD2882342
S113021051F061E0CE010696F6D2882321F061E028
S1130220CE010B96F0D2DF91CF910895CF93FC01CC
S113023090913C019430E9F484899589A689B78921
S1130240892B8A2B8B2BB9F0C62F81818F708093D9
S1130250E9008091E80085FD08C0E8EEF0E08081C7
S11302608E77808343D3811107C0C093F10080E06F
S113027003C082E001C082E0CF910895FB01682FA2
S113028084859585D3DF21E030E0811102C020E030
S113029030E088279927821B930B0895FC019091E5
S11302A03C01943029F584899589A689B789892BDD
S11302B08A2B8B2BF9F081818F708093E900209138
S11302C0F3008091F20090E0922B892BA9F0E8EEE4
S11302D0F0E0908180818E77808395FD0FC006D3F6
S11302E081110DC0E8EEF0E090819E77908308952F
S11302F082E0089582E0089580E0089580E0089502
S1130300FC0190913C01943091F484899589A689EB
S1130310B789892B8A2B8B2B51F081818F70809325
S1130320E9008091E80080FF02C0CF01B7CF0895B3
S113033020913C01243079F5FC0144895589668972
S11303407789452B462B472B49F186818F70809303
S1130350E9008091E80082FF24C02091F30080919D
S1130360F20090E0922B892B21F02091F10030E0F3
S113037002C02FEF3FEF4091F3008091F20090E034
S1130380942B892B89F4E8EEF0E080818B778083CD
S1130390822F932F08958FEF9FEF08958FEF9FEF94
S11303A008958FEF9FEF0895822F932F0895FC01F6
S11303B084859585BDDF992314F48EEF9FEF08950E
S11303C0FB012EE0DB011D922A95E9F723E023834C
S11303D02EE331E03187208727ED31E03387228710
S11303E09587848708950895CF93DF93FC019091B6
S11303F0E80093FF96C0208130E080914101909104
S113040042018217930709F08CC0EF0180913E01ED
S1130410813259F018F48032B9F183C0823209F480
S11304205FC0833209F46FC07CC080913D01813A82
S113043009F077C0E8EEF0E08081877F80838081D7
S113044080FFFDCF8C899D89AE89BF89E1EFF0E003
S11304508083492F5A2F6B2F77274083AD0166275E
S1130460772740838B2F9927AA27BB278083888DE2
S11304708083898D80838A8D8083E8EEF0E080819B
S11304808E7780830FD24DC080913D01813209F077
S113049048C0E8EEF0E08081877F808305C08091CA
S11304A03C01882309F43DC0808182FFF8CFE1EF4D
S11304B0F0E030812081908180813C8B2D8B9E8B5C
S11304C08F8B8081888F8081898F80818A8FE8EEED
S11304D0F0E080818B778083E5D1CE0184DF21C079
S11304E080913D018132E9F4E8EEF0E08081877F7C
S11304F08083D8D180913F0190914001998B888B62
S1130500CE0170D50EC080913D01813251F4E8EEE8
S1130510F0E08081877F8083C5D160913F01CE0167
S113052062DFDF91CF910895CF92DF92FF920F9314
S11305301F93CF93DF9320914301309144012617F9
S1130540370758F06115710539F4E8EEF0E02081C1
S11305502E7720839B0101C09B01A82FB92F10E0A7
S1130560E8EEF0E063EF70E042EF50E00F2EF1EFC1
S1130570CF2ED12CF02D01E0F12C30C080913C0124
S1130580882309F442C0853009F441C0808183FD89
S113059040C0808182FD32C0808180FF1FC0EB019A
S11305A01881EA01888190E0912B2115310579F0B9
S11305B08830910560F41D91E601188321503109BA
S11305C001962115310519F088309105A1F7102FF6
S11305D0089709F01F2D80818E77808321153105BE
S11305E069F61111CBCF0AC080913C01882399F0A0
S11305F0853099F0808183FF03C011C0E8EEF0E0FC
S1130600808182FFF1CF80E00BC082E009C083E0EB
S113061007C081E005C082E003C083E001C081E03F
S1130620DF91CF911F910F91FF90DF90CF900895AC
S1130630CF92DF92FF920F931F93CF93DF9320917A
S11306404301309144012617370758F061157105AD
S113065039F4E8EEF0E020812E7720839B0101C07D
S11306609B01E82FF92F10E0A8EEB0E063EF70E0F3
S113067042EF50E00F2EF1EFCF2ED12CF02D01E000
S1130680F12C31C080913C01882309F443C08530AA
S113069009F442C08C9183FD41C08C9182FD33C02A
S11306A08C9180FF20C0EB011881EA01888190E0E1
S11306B0912B2115310581F08830910568F414914E
S11306C0E60118833196215031090196211531052F
S11306D019F08830910599F7102F089709F01F2D0C
S11306E08C918E778C932115310561F61111CACF47
S11306F00AC080913C01882399F0853099F080816B
S113070083FF03C011C0E8EEF0E0808182FFF1CFE7
S113071080E00BC082E009C083E007C081E005C02F
S113072082E003C083E001C081E0DF91CF911F919B
S11307300F91FF90DF90CF9008958F929F92BF9278
S1130740CF92DF92EF92FF920F931F93CF93DF9399
S1130750873070F126C0292F2F70E701288389176D
S113076031F0E80178812081E401588103C0242F0D
S1130770762F5B2D21FF12C03C913E7F3C9330814C
S11307803D7F30833C9131603C93E8017883208342
S1130790E4015883E6012881222344F49F5F9730C3
S11307A0D1F68F708093E90081E021C080E01FC002
S11307B0982F9F709093E900982F242F762F50E064
S11307C0ABEEB0E0EDEEF0E00CEE10E00F2EF0EF4B
S11307D08F2E912CF02D0F2EFEEECF2ED12CF02D3E
S11307E00F2EF9EEEF2EF12CF02DB12CC3CFDF91AB
S11307F0CF911F910F91FF90EF90DF90CF90BF901A
S11308009F908F900895EF92FF920F931F93CF9331
S1130810DF936623E9F1062FC82FD92F10E00F2E9E
S1130820F6E0FF2EF02D6894EE24E1F8588155236C
S113083049F19C81E981FA816B81852F8F70873022
S113084048F5923010F44E2D01C04F2DE930F105DA
S113085050F028E030E090E09F5F220F331F2E1706
S11308603F07D0F301C090E09295907F492B90E42C
S1130870699FB0011124551F5527551F652B5DDF56
S1130880882349F01F5F25960113D0CF81E003C070
S113089081E001C080E0DF91CF911F910F91FF9023
S11308A0EF90089580913D01882344F0E8EEF0E054
S11308B014C080913C01811103C00895E8EEF0E07A
S11308C0808182FFF6CFE8EEF0E080818B77808331
S11308D0089580913C01882341F0808180FFF9CF05
S11308E0E8EEF0E080818E77808308950F931F9364
S11308F0CF93DF932091E4003091E50065E6ACEE00
S1130900B0E0E8EEF0E00BEE10E044EE50E001C0A1
S11309109C019C91892F817090FD1DC020C0809105
S11309203C01882381F0853081F0E801888185FDD0
S11309300EC0EA01888199812817390751F3615063
S113094039F784E00FC082E00DC083E00BC081E082
S113095009C080E007C0808180FFE1CFFACF908199
S113096092FFDDCFDF91CF911F910F9108950F93E7
S11309701F93CF93DF934CD053D0C8EDD0E0888140
S11309808F77888388818068888388818F7D888336
S113099019BC10923C011092380110923A01109245
S11309A0390100EE10E0F80180818B7F808388811B
S11309B08160888342E060E080E0BFDEE1EEF0E049
S11309C080818E7F8083E2EEF0E08081816080838D
S11309D0808188608083F80180818E7F8083888114
S11309E080618883DF91CF911F910F910895E8ED85
S11309F0F0E080818F7E8083E7EDF0E0808181608C
S1130A00808384E082BF81E080933B01B0CF08956E
S1130A10E8EDF0E080818E7F80831092E2000895FB
S1130A201092DA001092E10008951F920F920FB60F
S1130A300F9211242F933F934F935F936F937F9360
S1130A408F939F93AF93BF93EF93FF938091E100B4
S1130A5082FF0AC08091E20082FF06C0E1EEF0E06E
S1130A6080818B7F808366D28091DA0080FF1DC0F5
S1130A708091D80080FF19C0EAEDF0E080818E7F7C
S1130A8080838091D90080FF0CC080E189BD82E120
S1130A9089BD09B400FEFDCF81E080933C0198D26A
S1130AA004C019BC10923C0194D28091E10080FFF3
S1130AB016C08091E20080FF12C0E2EEF0E0808177
S1130AC08E7F8083808180618083E8EDF0E0808187
S1130AD08062808319BC85E080933C012BD2809195
S1130AE0E10084FF2FC08091E20084FF2BC080E1ED
S1130AF089BD82E189BD09B400FEFDCFE8EDF0E0D7
S1130B0080818F7D8083E1EEF0E080818F7E808321
S1130B10E2EEF0E080818F7E80838081816080833B
S1130B2080913801882321F084E080933C0109C03E
S1130B308091E300882314F081E001C083E0809376
S1130B403C01F8D18091E10083FF23C08091E20051
S1130B5083FF1FC0E1EEF0E08081877F808382E025
S1130B6080933C011092380180818E7F8083E2EE75
S1130B70F0E080818E7F808380818061808342E089
S1130B8060E080E0DADDE0EFF0E08081886080837F
S1130B90D1D1FF91EF91BF91AF919F918F917F91AF
S1130BA06F915F914F913F912F910F900FBE0F90D6
S1130BB01F9018951F920F920FB60F921124EF9267
S1130BC0FF920F931F932F933F934F935F936F93D2
S1130BD07F938F939F93AF93BF93CF93DF93EF93C1
S1130BE0FF93C091E900CF708091EC00D82FD170B1
S1130BF080FDD0E80F2EF9EEEF2EF12CF02DF70149
S1130C00108200EF10E0F8018081877F8083789460
S1130C1021D0F7011082F801808188608083CD2B78
S1130C20CF70F701C083FF91EF91DF91CF91BF9116
S1130C30AF919F918F917F916F915F914F913F9170
S1130C402F911F910F91FF90EF900F900FBE0F9077
S1130C501F9018950F931F93CF93DF93CDB7DEB7F3
S1130C60AA970FB6F894DEBF0FBECDBFEDE3F1E057
S1130C7025E431E0A1EFB0E08C9181932E173F077A
S1130C80D9F7ACD18091E80083FF2FC1EDE3F1E007
S1130C9090818181853009F479C030F48130B1F1DB
S1130CA068F0833099F121C1883009F4E9C08930B2
S1130CB009F4F6C0863009F018C18BC0903821F0D1
S1130CC0923809F012C108C08091390190913A011B
S1130CD0992371F082600CC0809141018F70E9EE1C
S1130CE0F0E080838091EB0085FB882780F91082F7
S1130CF0E8EEF0E09081977F9083A1EFB0E08C93D1
S1130D001C9280818E778083CDDDEFC0992309F416
S1130D10FBC0923009F0E9C0FCC091E0833009F0D7
S1130D2090E090933A0129C0809141018F7009F4B9
S1130D30DCC08093E9009091EB0090FF1EC090917D
S1130D403E01933031F4EBEEF0E0808180628083E9
S1130D5014C0EBEEF0E090819061908321E030E0EC
S1130D60A90102C0440F551F8A95E2F7AAEEB0E02C
S1130D704C931C928081886080831092E900E8EE95
S1130D80F0E08081877F80838DDDAFC09111ADC09D
S1130D9010913F011F77E3EEF0E080818078812B92
S1130DA08083E8EEF0E08081877F80837BDDE8EE5E
S1130DB0F0E0808180FFFDCFE3EEF0E08081806889
S1130DC08083111102C082E001C083E080933C0162
S1130DD08CC09058923008F088C080913F01909167
S1130DE040018C3D53E0950799F583E08A838AE2BC
S1130DF089835FB7F894DE01139620E03EE041E278
S1130E00E32FF0E040935700849120FF03C08295C4
S1130E108F703F5F8F708A3018F090E0C79602C0E1
S1130E2090E0C0968D939D932F5F243149F75FBF67
S1130E3008EE10E0F8018081877F80836AE270E029
S1130E40CE01019671DBF80180818B7780834DC0E0
S1130E50AE014F5F5F4F609141018AD9BC01892B7C
S1130E6009F443C008EE10E0F8019081977F908365
S1130E7089819A81DDDBF80180818B77808335C09D
S1130E80903899F5E8EEF0E08081877F8083809147
S1130E9038018093F10080818E77808303DD25C043
S1130EA0911123C080913F019091400199270297AD
S1130EB0E4F4E8EEF0E08081877F808380913F0155
S1130EC080933801EFDC80913801882321F084E09D
S1130ED080933C0109C08091E300882314F081E0F1
S1130EE001C084E080933C0175D08091E80083FFC9
S1130EF016C0E8EEF0E08081877F8083EBEEF0E0BF
S1130F008081806280830BC090913F01913069F7AA
S1130F1004CF80913F01882309F406CF2ECFAA96EF
S1130F200FB6F894DEBF0FBECDBFDF91CF911F91F6
S1130F300F9108950895CF9380913C01882399F0EF
S1130F40C091E900CF708091EC00982F917080FDE2
S1130F5090E8C92B1092E9008091E80083FD7ADEC5
S1130F60CF70C093E900CF91089584B7877F84BF81
S1130F700FB6F894A8958091600088618093600012
S1130F80109260000FBE90E080E80FB6F894809352
S1130F906100909361000FBE2ACD08952AE231E0EA
S1130FA04DE050E061E070E08BE191E01CC00895F9
S1130FB0DCDF6AE271E080E091E002DA7894EEDF4F
S1130FC080E091E0B5D980E091E09AD9B4DFF7CF21
S1130FD00895089580E091E007C9089580E091E0C4
S1130FE003CA08950895A0E0B0E0E8EFF7E033C045
S1130FF05B014A017901D90113962C9121FF1DC08F
S1131000C0E0D0E0C815D905D9F08C016C01CA0C38
S1131010DB1CC8010C151D0571F00F5F1F4FD701B4
S11310201896ED91FC911997B701DC018C91099503
S1131030892B79F305C02196E5CF80E090E001C0CB
S1131040CE01CDB7DEB7ECE022C02F923F924F9293
S11310505F926F927F928F929F92AF92BF92CF9244
S1131060DF92EF92FF920F931F93CF93DF93CDB74D
S1131070DEB7CA1BDB0B0FB6F894DEBF0FBECDBFC5
S113108009942A88398848885F846E847D848C8496
S11310909B84AA84B984C884DF80EE80FD800C819F
S11310A01B81AA81B981CE0FD11D0FB6F894DEBF82
S10F10B00FBECDBFED010895F894FFCFF2
S11310BC00831000000104100000018208000001EC
S11310CC000000000000000000000048656C6C6F1C
S10D10DC20576F726C640D0A0000C7
S9030000FC
