S01200007364767873657269616C2E73726563CD
S11300009BC00000B6C00000B4C00000B2C0000035
S1130010B0C00000AEC00000ACC00000AAC0000028
S1130020A8C00000A6C0000032C60000F5C600004B
S1130030A0C000009EC000009CC000009AC0000048
S113004098C0000096C0000094C0000092C0000058
S113005090C000008EC000008CC000008AC0000068
S113006088C0000086C0000084C0000082C0000078
S113007080C000007EC000007CC000007AC0000088
S113008078C0000076C0000074C0000072C0000098
S113009070C000006EC000006CC000006AC00000A8
S11300A068C0000066C0000064C000001C034C006F
S11300B05500460041002000430044004300200056
S11300C0440065006D006F000000180344006500E3
S11300D061006E002000430061006D006500720045
S11300E0610000000403090409023E00020100C08B
S11300F03209040000010202010005240010010479
S11301002402060524060001070582030800FF09EE
S1130110040100020A00000007050402100005079C
S11301200583021000051201100102000008EB0310
S1130130442001000102DC0111241FBECFEFDAE0EC
S1130140DEBFCDBF11E0A0E0B1E0E8EAF8E102C013
S113015005900D92A033B107D9F721E0A0E3B1E0F7
S113016001C01D92A335B207E1F70E9434090C9433
S1130170520C46CF292F33272230310559F0233032
S1130180310569F02130310521F582E190E026E264
S113019031E028C08EE390E028EE30E023C09927B8
S11301A08130910551F018F0029769F017C0E4EE20
S11301B0F0E0849190E09F0115C0EAECF0E08491B6
S11301C090E09F010FC0ECEAF0E0849190E09F0181
S11301D009C080E090E020E030E004C080E090E0DE
S11301E020E030E0FA0131832083089514B883B10C
S11301F085FB882780F98093370183B186FB8827A4
S113020080F98093360183B1881F8827881F8093E3
S1130210350183B18170809334010895FF920F9367
S11302201F93CF93DF9383B121E0A82FA07285FFA2
S113023020E083B171E0E82FE07486FF70E0B3B191
S11302405B2F551F5527551F83B161E0982F91707F
S1130250F92E80FF60E0909137019227409136019A
S1130260472780913501852730913401362799231A
S113027009F4A4C041113AC0F1E0E111F0E02223F5
S113028011F0F1112AC001E010E0E1E0A111E0E079
S1130290E723CE2FD0E0C023D123CD2B09F098C083
S11302A0C42FD0E0222311F0711107C0E1E0A111A5
S11302B0E0E0FE23EF2FF0E002C0E1E0F0E0EC2309
S11302C0FD2311E0EF2B09F410E0911102C0442347
S11302D011F0112329F0A0E007C011E0A0E004C050
S11302E0A1E002C011E0A0E0A17002C0A0E010E013
S11302F0882309F471C031113EC041E0F11040E09F
S1130300552311F041112EC0C1E0D0E09B2F9095F0
S1130310991F9927991F9623E92FF0E0EC23FD23D9
S1130320EF2B09F063C0C32FD0E0552311F0611106
S113033009C0EB2FE095EE1FEE27EE1F4E23E42FAE
S1130340F0E002C0E1E0F0E0EC23FD2341E0EF2B1C
S113035009F440E0811102C0332311F0442329F051
S113036030E007C041E030E004C031E002C041E0C9
S113037030E0317002C030E040E080913201909171
S11303803301810F911D8A1B91099093330180934E
S113039032018091300190913101840F911D831BB2
S11303A09109909331018093300120933701709328
S11303B03601509335016093340130C0F1E0E1110E
S11303C0F0E0222311F0F11117C000E010E05DCF3E
S11303D0911188CF11E07BCF41E0F11040E055232B
S11303E011F0411113C0C0E0D0E090CF8111BFCF14
S11303F041E0B2CF142F6BCFC42FD0E0222309F4F5
S113040055CF7111F7CF52CF432FA6CFC32FD0E0D2
S1130410552309F48ECF6111F7CF8BCFDF91CF91A4
S11304201F910F91FF9008958091320190913301B3
S1130430109233011092320108958091300190910D
S1130440310110923101109230010895CF93DF935E
S1130450EC01FC0170968BE0DF011D928A95E9F7AF
S113046082E08C83898783E08E8761E0CE010196E8
S1130470FCD2882351F061E0CE010696F6D288239F
S113048021F061E0CE010B96F0D2DF91CF91089577
S1130490CF93FC0190914A019430E9F484899589C1
S11304A0A689B789892B8A2B8B2BB9F0C62F81811A
S11304B08F708093E9008091E80085FD08C0E8EE24
S11304C0F0E080818E77808343D3811107C0C0938D
S11304D0F10080E003C082E001C082E0CF91089582
S11304E0FB01682F84859585D3DF21E030E08111FD
S11304F002C020E030E088279927821B930B0895DF
S1130500FC0190914A01943029F584899589A68942
S1130510B789892B8A2B8B2BF9F081818F7080937B
S1130520E9002091F3008091F20090E0922B892B56
S1130530A9F0E8EEF0E0908180818E77808395FDCC
S11305400FC006D381110DC0E8EEF0E090819E77D4
S11305509083089582E0089582E0089580E00895EC
S113056080E00895FC0190914A01943091F48489CB
S11305709589A689B789892B8A2B8B2B51F0818188
S11305808F708093E9008091E80080FF02C0CF0162
S1130590B7CF089520914A01243079F5FC014489AC
S11305A0558966897789452B462B472B49F18681E6
S11305B08F708093E9008091E80082FF24C020912D
S11305C0F3008091F20090E0922B892B21F020918E
S11305D0F10030E002C02FEF3FEF4091F300809133
S11305E0F20090E0942B892B89F4E8EEF0E080810E
S11305F08B778083822F932F08958FEF9FEF089539
S11306008FEF9FEF08958FEF9FEF0895822F932F21
S11306100895FC0184859585BDDF992314F48EEF3C
S11306209FEF0895FB012EE0DB011D922A95E9F767
S113063023E0238320E732E03187208729E033E079
S1130640338722879587848708950895CF93DF930E
S1130650FC019091E80093FF96C0208130E08091E6
S11306604F01909150018217930709F08CC0EF015C
S113067080914C01813259F018F48032B9F183C071
S1130680823209F45FC0833209F46FC07CC0809168
S11306904B01813A09F077C0E8EEF0E08081877F72
S11306A08083808180FFFDCF8C899D89AE89BF893D
S11306B0E1EFF0E08083492F5A2F6B2F7727408397
S11306C0AD016627772740838B2F9927AA27BB275D
S11306D08083888D8083898D80838A8D8083E8EEF2
S11306E0F0E080818E7780830FD24DC080914B01E2
S11306F0813209F048C0E8EEF0E08081877F808392
S113070005C080914A01882309F43DC0808182FF9D
S1130710F8CFE1EFF0E030812081908180813C8B43
S11307202D8B9E8B8F8B8081888F8081898F808198
S11307308A8FE8EEF0E080818B778083E5D1CE016B
S113074084DF21C080914B018132E9F4E8EEF0E0CE
S11307508081877F8083D8D180914D0190914E0113
S1130760998B888BCE019CD50EC080914B01813230
S113077051F4E8EEF0E08081877F8083C5D16091F9
S11307804D01CE0162DFDF91CF910895CF92DF92C8
S1130790FF920F931F93CF93DF93209151013091D8
S11307A052012617370758F06115710539F4E8EE40
S11307B0F0E020812E7720839B0101C09B01A82FAC
S11307C0B92F10E0E8EEF0E063EF70E042EF50E0A4
S11307D00F2EF1EFCF2ED12CF02D01E0F12C30C0F3
S11307E080914A01882309F442C0853009F441C04C
S11307F0808183FD40C0808182FD32C0808180FF82
S11308001FC0EB011881EA01888190E0912B21152A
S1130810310579F08830910560F41D91E601188363
S11308202150310901962115310519F088309105BF
S1130830A1F7102F089709F01F2D80818E778083F0
S11308402115310569F61111CBCF0AC080914A01F7
S1130850882399F0853099F0808183FF03C011C00B
S1130860E8EEF0E0808182FFF1CF80E00BC082E00F
S113087009C083E007C081E005C082E003C083E0D3
S113088001C081E0DF91CF911F910F91FF90DF9024
S1130890CF900895CF92DF92FF920F931F93CF933F
S11308A0DF9320915101309152012617370758F0F8
S11308B06115710539F4E8EEF0E020812E7720838C
S11308C09B0101C09B01E82FF92F10E0A8EEB0E0D6
S11308D063EF70E042EF50E00F2EF1EFCF2ED12CFA
S11308E0F02D01E0F12C31C080914A01882309F4F4
S11308F043C0853009F442C08C9183FD41C08C9182
S113090082FD33C08C9180FF20C0EB011881EA0185
S1130910888190E0912B2115310581F08830910573
S113092068F41491E6011883319621503109019637
S11309302115310519F08830910599F7102F089782
S113094009F01F2D8C918E778C932115310561F65A
S11309501111CACF0AC080914A01882399F08530C9
S113096099F0808183FF03C011C0E8EEF0E080813C
S113097082FFF1CF80E00BC082E009C083E007C0B2
S113098081E005C082E003C083E001C081E0DF9123
S1130990CF911F910F91FF90DF90CF9008958F9288
S11309A09F92BF92CF92DF92EF92FF920F931F9389
S11309B0CF93DF93873070F126C0292F2F70E70182
S11309C02883891731F0E80178812081E401588176
S11309D003C0242F762F5B2D21FF12C03C913E7F54
S11309E03C9330813D7F30833C9131603C93E801FE
S11309F078832083E4015883E6012881222344F488
S1130A009F5F9730D1F68F708093E90081E021C019
S1130A1080E01FC0982F9F709093E900982F242F97
S1130A20762F50E0ABEEB0E0EDEEF0E00CEE10E02F
S1130A300F2EF0EF8F2E912CF02D0F2EFEEECF2ED9
S1130A40D12CF02D0F2EF9EEEF2EF12CF02DB12C30
S1130A50C3CFDF91CF911F910F91FF90EF90DF9063
S1130A60CF90BF909F908F900895EF92FF920F9335
S1130A701F93CF93DF936623E9F1062FC82FD92F55
S1130A8010E00F2EF6E0FF2EF02D6894EE24E1F82E
S1130A905881552349F19C81E981FA816B81852F25
S1130AA08F70873048F5923010F44E2D01C04F2DD1
S1130AB0E930F10550F028E030E090E09F5F220F2C
S1130AC0331F2E173F07D0F301C090E09295907F1B
S1130AD0492B90E4699FB0011124551F5527551FD8
S1130AE0652B5DDF882349F01F5F25960113D0CF66
S1130AF081E003C081E001C080E0DF91CF911F91CC
S1130B000F91FF90EF90089580914B01882344F05A
S1130B10E8EEF0E014C080914A01811103C0089509
S1130B20E8EEF0E0808182FFF6CFE8EEF0E080812D
S1130B308B778083089580914A01882341F08081D6
S1130B4080FFF9CFE8EEF0E080818E77808308950E
S1130B500F931F93CF93DF932091E4003091E5002E
S1130B6065E6ACEEB0E0E8EEF0E00BEE10E044EE4B
S1130B7050E001C09C019C91892F817090FD1DC0A3
S1130B8020C080914A01882381F0853081F0E801FA
S1130B90888185FD0EC0EA0188819981281739076B
S1130BA051F3615039F784E00FC082E00DC083E057
S1130BB00BC081E009C080E007C0808180FFE1CFE5
S1130BC0FACF908192FFDDCFDF91CF911F910F91EA
S1130BD008950F931F93CF93DF934CD053D0C8ED58
S1130BE0D0E088818F778883888180688883888132
S1130BF08F7D888319BC10924A011092460110928D
S1130C0048011092470100EE10E0F80180818B7FCB
S1130C10808388818160888342E060E080E0BFDE79
S1130C20E1EEF0E080818E7F8083E2EEF0E080816F
S1130C3081608083808188608083F80180818E7FD9
S1130C408083888180618883DF91CF911F910F9188
S1130C500895E8EDF0E080818F7E8083E7EDF0E099
S1130C6080818160808384E082BF81E08093490138
S1130C70B0CF0895E8EDF0E080818E7F80831092FC
S1130C80E20008951092DA001092E10008951F9294
S1130C900F920FB60F9211242F933F934F935F93AC
S1130CA06F937F938F939F93AF93BF93EF93FF9330
S1130CB08091E10082FF0AC08091E20082FF06C0B9
S1130CC0E1EEF0E080818B7F808366D28091DA0050
S1130CD080FF1DC08091D80080FF19C0EAEDF0E0CC
S1130CE080818E7F80838091D90080FF0CC080E159
S1130CF089BD82E189BD09B400FEFDCF81E0809306
S1130D004A01C4D204C019BC10924A01C0D28091D5
S1130D10E10080FF16C08091E20080FF12C0E2EE85
S1130D20F0E080818E7F8083808180618083E8ED24
S1130D30F0E080818062808319BC85E080934A0161
S1130D402BD28091E10084FF2FC08091E20084FFC8
S1130D502BC080E189BD82E189BD09B400FEFDCFCD
S1130D60E8EDF0E080818F7D8083E1EEF0E080812A
S1130D708F7E8083E2EEF0E080818F7E80838081AD
S1130D808160808380914601882321F084E08093F0
S1130D904A0109C08091E300882314F081E001C076
S1130DA083E080934A01F8D18091E10083FF23C05E
S1130DB08091E20083FF1FC0E1EEF0E08081877F35
S1130DC0808382E080934A011092460180818E7F65
S1130DD08083E2EEF0E080818E7F80838081806179
S1130DE0808342E060E080E0DADDE0EFF0E08081E3
S1130DF088608083D1D1FF91EF91BF91AF919F9192
S1130E008F917F916F915F914F913F912F910F90AF
S1130E100FBE0F901F9018951F920F920FB60F924E
S1130E201124EF92FF920F931F932F933F934F93AD
S1130E305F936F937F938F939F93AF93BF93CF935E
S1130E40DF93EF93FF93C091E900CF708091EC00A2
S1130E50D82FD17080FDD0E80F2EF9EEEF2EF12CB3
S1130E60F02DF701108200EF10E0F8018081877FF8
S1130E708083789421D0F7011082F8018081886002
S1130E808083CD2BCF70F701C083FF91EF91DF9169
S1130E90CF91BF91AF919F918F917F916F915F910E
S1130EA04F913F912F911F910F91FF90EF900F90D1
S1130EB00FBE0F901F9018950F931F93CF93DF933E
S1130EC0CDB7DEB7AA970FB6F894DEBF0FBECDBF7D
S1130ED0EBE4F1E023E531E0A1EFB0E08C91819304
S1130EE02E173F07D9F7D8D18091E80083FF2FC18F
S1130EF0EBE4F1E090818181853009F479C030F42C
S1130F008130B1F168F0833099F121C1883009F45E
S1130F10E9C0893009F4F6C0863009F018C18BC0E5
S1130F20903821F0923809F012C108C0809147012D
S1130F3090914801992371F082600CC080914F0117
S1130F408F70E9EEF0E080838091EB0085FB8827C9
S1130F5080F91082E8EEF0E09081977F9083A1EF12
S1130F60B0E08C931C9280818E778083CDDDEFC0BE
S1130F70992309F4FBC0923009F0E9C0FCC091E068
S1130F80833009F090E09093480129C080914F018B
S1130F908F7009F4DCC08093E9009091EB0090FF1E
S1130FA01EC090914C01933031F4EBEEF0E080815F
S1130FB08062808314C0EBEEF0E0908190619083B6
S1130FC021E030E0A90102C0440F551F8A95E2F7E1
S1130FD0AAEEB0E04C931C928081886080831092CA
S1130FE0E900E8EEF0E08081877F80838DDDAFC08B
S1130FF09111ADC010914D011F77E3EEF0E08081B7
S11310008078812B8083E8EEF0E08081877F808385
S11310107BDDE8EEF0E0808180FFFDCFE3EEF0E0E1
S1131020808180688083111102C082E001C083E066
S113103080934A018CC09058923008F088C0809107
S11310404D0190914E018C3D53E0950799F583E055
S11310508A838AE289835FB7F894DE01139620E0DD
S11310603EE041E2E32FF0E040935700849120FFFB
S113107003C082958F703F5F8F708A3018F090E0C4
S1131080C79602C090E0C0968D939D932F5F243144
S113109049F75FBF08EE10E0F8018081877F808305
S11310A06AE270E0CE01019671DBF80180818B77F2
S11310B080834DC0AE014F5F5F4F60914F015AD89E
S11310C0BC01892B09F443C008EE10E0F8019081BB
S11310D0977F908389819A81DDDBF80180818B770A
S11310E0808335C0903899F5E8EEF0E08081877F01
S11310F08083809146018093F10080818E77808384
S113110003DD25C0911123C080914D0190914E01C2
S113111099270297E4F4E8EEF0E08081877F8083EA
S113112080914D0180934601EFDC80914601882334
S113113021F084E080934A0109C08091E300882370
S113114014F081E001C084E080934A01A1D0809131
S1131150E80083FF16C0E8EEF0E08081877F80839B
S1131160EBEEF0E08081806280830BC090914D01B2
S1131170913069F704CF80914D01882309F406CF9B
S11311802ECFAA960FB6F894DEBF0FBECDBFDF9167
S1131190CF911F910F9108950895CF9380914A01A3
S11311A0882399F0C091E900CF708091EC00982FCA
S11311B0917080FD90E8C92B1092E9008091E800BD
S11311C083FD7ADECF70C093E900CF91089584B790
S11311D0877F84BF0FB6F894A895809160008861DA
S11311E080936000109260000FBE90E080E80FB61C
S11311F0F89480936100909361000FBE2ADD0C94F3
S1131200F60008950F931F93CF93DF93CDB7DEB706
S1131210EC970FB6F894DEBF0FBECDBF0ED9182FD2
S1131220092F02D90F931F939F938F938BE191E022
S11312309F938F938E010F5F1F4F1F930F935AD06D
S113124068E371E0C8012DD00FB6F894DEBF0FBE7D
S1131250CDBFEC960FB6F894DEBF0FBECDBFDF91C5
S1131260CF911F910F910895B2DF68E371E080E0A0
S113127091E0D8D978940E940E01C4DF80E091E017
S113128089D980E091E06ED988DFF5CF089508957B
S113129080E091E0DBC8089580E091E0D7C908952B
S11312A00895EF92FF920F931F93CF93DF93DB0187
S11312B013962C9121FF18C08B017C01D0E0C0E073
S11312C0F70181917F01882361F0D8011896ED918F
S11312D0FC911997B8010995892B91F3DFEFCFEFB2
S11312E0EFCF8D2F9C2F02C08FEF9FEFCDB7DEB7CE
S11312F0E6E0C9C2AEE0B0E0EFE7F9E0AAC20D89CA
S11313001E8986E08C831A8309838FEF9FE79E836F
S11313108D83AE01475E5F4F6F89788DCE01019654
S113132008D0EF81F885E00FF11F10822E96E4E0DB
S1131330ACC2ABE0B0E0EEE9F9E07DC26C017B0148
S11313408A01FC0117821682838181FFBFC1CE010D
S113135001963C01F6019381F70193FD859193FF7A
S113136081917F01882309F4ADC1853239F493FD5D
S1131370859193FF81917F01853221F4B60190E03C
S1131380C0D1E8CF912C212C312CFFE1F315D8F0FA
S11313908B3279F038F4803279F08332A1F4232D42
S11313A020611DC08D3261F0803369F4232D2160EA
S11313B016C0832D8260382EE32DE4603E2E2AC0B1
S11313C0F32DF8601DC037FC2DC020ED280F2A3006
S11313D040F08E32B9F436FC75C1232D2064322ED0
S11313E019C036FE06C08AE0989E200D1124922E64
S11313F011C0EAE02E9E200D1124222EF32DF0625E
S11314003F2E08C08C3621F4832D8068382E02C00C
S1131410883641F4F70193FD859193FF81917F0113
S11314208111B3CF982F9F7D9554933028F40C5F8E
S11314301F4F9FE399830DC0833631F0833771F0DA
S1131440833509F055C020C0F801808189830E5F7F
S11314501F4F88248394912C530112C02801F2E079
S11314604F0E511CF801A080B18036FE03C0692DD7
S113147070E002C06FEF7FEFC50138D14C018201EB
S1131480F32DFF773F2E15C0280122E0420E511C98
S1131490F801A080B18036FE03C0692D70E002C05F
S11314A06FEF7FEFC50117D14C01F32DF0683F2E8C
S11314B0820133FC19C0822D90E088169906A0F4AD
S11314C0B60180E290E01DD12A94F5CFF50137FCF6
S11314D0859137FE81915F01B60190E012D1211010
S11314E02A9421E0821A91088114910479F7E1C0C9
S11314F0843611F0893639F5F80137FE07C060816A
S11315007181828193810C5F1F4F08C0608171815A
S1131510072E000C880B990B0E5F1F4FF32DFF76DF
S11315203F2E97FF09C090958095709561957F4FE8
S11315308F4F9F4FF0683F2E2AE030E0A3011DD16A
S1131540882E861844C0853731F4232D2F7EB22E81
S11315502AE030E025C0932D997FB92E8F36C1F053
S113156018F4883579F0AEC0803719F0883721F047
S1131570A9C0E92FE061BE2EB4FE0DC0FB2DF460BE
S1131580BF2E09C034FE0AC0292F2660B22E06C021
S113159028E030E005C020E130E002C020E132E084
S11315A0F801B7FE07C060817181828193810C5F6D
S11315B01F4F06C06081718180E090E00E5F1F4F75
S11315C0A301DBD0882E8618FB2DFF773F2E36FE35
S11315D00DC0232D2E7FA22E891458F434FE0BC087
S11315E032FC09C0832D8E7EA82E05C0B82CA32CF6
S11315F003C0B82C01C0B92CA4FE0FC0FE01E80D35
S1131600F11D8081803321F49A2D997EA92E09C081
S1131610A2FE06C0B394B39404C08A2D867809F060
S1131620B394A3FC10C0A0FE06C0B21480F4280C2E
S1131630922C9B180DC0B21458F4B60180E290E0CD
S113164060D0B394F8CFB21418F42B1802C0982CBD
S1131650212CA4FE0FC0B60180E390E052D0A2FE7C
S113166016C0A1FC03C088E790E002C088E590E0C2
S1131670B6010CC08A2D867851F0A1FE02C08BE21F
S113168001C080E2A7FC8DE2B60190E03AD0891453
S113169030F4B60180E390E034D09A94F8CF8A9481
S11316A0F301E80DF11D8081B60190E02AD081108C
S11316B0F6CF222009F44ECEB60180E290E021D08C
S11316C02A94F7CFF6018681978102C08FEF9FEFAE
S11316D02B96E2E1CCC0FC010590615070400110F2
S11316E0D8F7809590958E0F9F1F0895FC01615047
S11316F0704001900110D8F7809590958E0F9F1F30
S113170008950F931F93CF93DF93FB01238121FD52
S113171003C08FEF9FEF2CC022FF16C04681578174
S1131720248135814217530744F4A081B1819D017E
S11317302F5F3F4F318320838C93268137812F5F26
S11317403F4F3783268314C08B01EC01FB010084D7
S1131750F185E02D0995892BE1F6D80116968D9136
S11317609C911797019617969C938E931697CE018A
S1131770DF91CF911F910F910895FA01AA27283084
S113178051F1203181F1E8946F936E7F6E5F7F4F4A
S11317908F4F9F4FAF4FB1E03ED0B4E03CD0670FC6
S11317A0781F891F9A1FA11D680F791F8A1F911D19
S11317B0A11D6A0F711D811D911DA11D20D009F469
S11317C068943F912AE0269F11243019305D3193AB
S11317D0DEF6CF010895462F4770405D4193B3E094
S11317E00FD0C9F7F6CF462F4F70405D4A3318F03B
S11317F0495D31FD4052419302D0A9F7EACFB4E0EC
S1131800A6959795879577956795BA95C9F70097A3
S11318106105710508959B01AC010A2E0694579544
S1131820479537952795BA95C9F7620F731F841F9B
S1131830951FA01D08952F923F924F925F926F9231
S11318407F928F929F92AF92BF92CF92DF92EF924C
S1131850FF920F931F93CF93DF93CDB7DEB7CA1BCD
S1131860DB0B0FB6F894DEBF0FBECDBF09942A88F8
S1131870398848885F846E847D848C849B84AA84A0
S1131880B984C884DF80EE80FD800C811B81AA812D
S1131890B981CE0FD11D0FB6F894DEBF0FBECDBFF8
S10B18A0ED010895F894FFCF57
S11318A800831000000104100000018208000001F8
S11318B800000000000000000000004C6566743A57
S11318C82025692C2052696768743A20256900002C
S9030000FC
